:100000000C9488010C94A7010C94A7010C94A701EF
:100010000C94A7010C94A7010C94A7010C94A701C0
:100020000C94A7010C94A7010C94A7010C94D10582
:100030000C94B0050C94BB050C94E2050C947A0664
:100040000C949F050C94B00E0C94A7010C94A7017E
:100050000C94A7010C94080D0C94A7010C94A70113
:100060000C94C6050C94A7010C94A7010C94A7014D
:100070000C94A7010C94A7010C94A7010C94A70160
:100080000C94A7010C94A7010C94A7010000211067
:10009000422063308440A550C660E77008812991F2
:1000A0004AA16BB18CC1ADD1CEE1EFF1311210029A
:1000B00073325222B5529442F772D6623993188342
:1000C0007BB35AA3BDD39CC3FFF3DEE36224433466
:1000D00020040114E664C774A44485546AA54BB592
:1000E00028850995EEE5CFF5ACC58DD5533672263A
:1000F00011163006D776F6669556B4465BB77AA7E2
:1001000019973887DFF7FEE79DD7BCC7C448E55885
:100110008668A7784008611802282338CCC9EDD931
:100120008EE9AFF9488969990AA92BB9F55AD44AD9
:10013000B77A966A711A500A333A122AFDDBDCCB81
:10014000BFFB9EEB799B588B3BBB1AABA66C877CA5
:10015000E44CC55C222C033C600C411CAEED8FFDD1
:10016000ECCDCDDD2AAD0BBD688D499D977EB66E79
:10017000D55EF44E133E322E511E700E9FFFBEEF21
:10018000DDDFFCCF1BBF3AAF599F788F8891A981E3
:10019000CAB1EBA10CD12DC14EF16FE18010A100CD
:1001A000C230E3200450254046706760B9839893BD
:1001B000FBA3DAB33DC31CD37FE35EF3B10290121D
:1001C000F322D2323542145277625672EAB5CBA589
:1001D000A89589856EF54FE52CD50DC5E234C3246D
:1001E000A01481046674476424540544DBA7FAB75D
:1001F0009987B8975FE77EF71DC73CD7D326F236BD
:100200009106B01657667676154634564CD96DC9A8
:100210000EF92FE9C899E9898AB9ABA9445865480C
:1002200006782768C018E1088238A3287DCB5CDBFC
:100230003FEB1EFBF98BD89BBBAB9ABB754A545A5C
:10024000376A167AF10AD01AB32A923A2EFD0FEDC8
:100250006CDD4DCDAABD8BADE89DC98D267C076CAC
:10026000645C454CA23C832CE01CC10C1FEF3EFF9C
:100270005DCF7CDF9BAFBABFD98FF89F176E367EFC
:10028000554E745E932EB23ED10EF01E00081C181F
:100290001410ABBA83AAAA3158000057F68503554B
:1002A00044020F60E0261C6B557081317C00007B9E
:1002B000F9AE02388C3280401026A16B5510F33114
:1002C00051000050F74F030E44020F58E026A16B77
:1002D000557081315CE0005CDB4201AA8C328030D9
:1002E0001026A16B5510F3314560004555BB039CAA
:1002F00080020F68E026A16B5470813158000057CE
:10030000F685035590020F60E026A16B55708100C1
:1003100011241FBECFEFD0E1DEBFCDBF11E0A0E0C2
:10032000B1E0E4E9F7E300E00BBF02C007900D92F3
:10033000AA31B107D9F719E1AAE1B1E001C01D92D4
:10034000A03CB107E1F70E94EA170C94C91B0C947A
:1003500000008FB7F894992708958FBF0895609192
:10036000DA0F7091DB0F2CB53DB506B602FE04C066
:100370006F5F7F4F2CB53DB588279927CB01772735
:10038000662744275527622B732B842B952B0895C2
:10039000ECE8F0E06927660FF11DE60FF11DC89546
:1003A000982F802D3196C89590250895880F95989F
:1003B00090E087FF02C0979A01C097989698969A06
:1003C0009F5F973011F0880FF4CF979A9698969A7E
:1003D000959A80E067FF02C0979A01C09798969817
:1003E000969A8F5F883011F0660FF4CF959A979A9E
:1003F000969A08956091591989E00E94D60160E0AB
:100400008BE00E94D60161E180E00E94D6018DE779
:1004100090E0019701960197E1F70895282F9FB783
:10042000F894E82FFF27E950FE4F80818F3F81F439
:10043000E091AB19E21771F40BC02093621904C06C
:10044000FF27E950FE4F20832093AB1920E007C01F
:1004500025E005C0809162198F3F91F7EECF892F7B
:1004600099278FBF822F992708952F923F924F92FD
:100470005F926F927F928F929F92AF92BF92CF9234
:10048000DF92EF92FF920F931F93CF93DF93CDB73D
:10049000DEB729970FB6F894DEBF0FBECDBF6FB79A
:1004A0006983F89420909F023090A0024090A102AE
:1004B0005090A202662477248824EEE4AE2E73E8DE
:1004C000B72ECC24DD24EE24FF2400E010E0222D02
:1004D000332D442D552D662D772D882D90E00E94CB
:1004E000AC192A833B834C835D836E837F8388872B
:1004F0009987822E932EA42EB52E2401350100E279
:100500000E94AA1AA22EB32EC42ED52EA3019201A8
:1005100056954795379527952A0D3B1D4C1D5D1D1A
:1005200057FF05C05F772F5F3F4F4F4F5F4F2093BF
:100530009F023093A0024093A1025093A202E9814E
:100540008E2F99278FBFCA01B90129960FB6F8944B
:10055000DEBF0FBECDBFDF91CF911F910F91FF90F6
:10056000EF90DF90CF90BF90AF909F908F907F9053
:100570006F905F904F903F902F900895809107016A
:100580008130A1F480911C01813021F486E00E9429
:100590000E0209C0823051F48091E310809307016C
:1005A00083E080931C0180E090E0089581E090E07A
:1005B000089580916519882319F02FE170E002C039
:1005C00078E022E0622FEFB7F894809105028E7FE9
:1005D0008093050287B1982F9F71829586958695A5
:1005E000837019F080E090E012C0822F885086312D
:1005F00018F081E090E00BC040E050E03327892FF5
:1006000099272817390711F441E050E0CA01982FC3
:100610009170990F809105028178262F2F71422FBA
:10062000440F440F892B842B80930502332727B96D
:10063000783059F5809163199091641921E08638DA
:10064000920718F087E090E01FC0833C910518F0F6
:1006500086E090E019C08136910518F085E090E0C1
:1006600013C08033910518F084E090E00DC088310C
:10067000910518F083E090E007C00C9718F082E035
:1006800090E002C080E090E0782F7770887D872B23
:10069000886D992786B98E2F99278FBF0895982F37
:1006A000969596959695E3EEFFE0E90FF11D87701C
:1006B00021E030E002C0220F331F8A95E2F78081EB
:1006C00082239927089561EE80E00E94D60160910F
:1006D0000F0289E00E94D6018AEF90E0019701960F
:1006E0000197E1F76091D40F8BE00E94D60184E17D
:1006F00090E0019701960197E1F70895E0910201DA
:10070000F0910301E75BFF4F80819927982F88279D
:1007100021813327822B932BCC9620910501309198
:10072000060142818217930710F4426001C04D7F99
:10073000428385E00E940E0285E08093290108959E
:100740007FB7F89462B720912D0130912E0140912E
:100750002F015091300106B601FE0FC081B792B74C
:10076000280F311D411D511D2F5F3F4F4F4F5F4FD0
:10077000290F311D411D511D04C0260F311D411D82
:10078000511D872F99278FBFCA01B9010895CF93B3
:10079000DF93CDB7DEB723970FB6F894DEBF0FBE59
:1007A000CDBF69837A838B8320912101309122010F
:1007B00080910E0190910F0128173907A0F4F901DB
:1007C000EE0FFF1FE20FF31FEC56F04FDE01119604
:1007D00083E00D9001928150E1F72F5F3F4F3093FE
:1007E00022012093210123960FB6F894DEBF0FBE9D
:1007F000CDBFDF91CF910895DF92EF92FF920F93DB
:100800001F938FB7F894282F3327D22E91B782B732
:1008100046B7981711F041FF02C02FBF6AC0809100
:10082000D70F8823E1F10E94A003E0908910F09097
:100830008A1000918B1010918C10209173013091CF
:10084000740140917501509176016E197F09800BFA
:10085000910B621773078407950720F01092D70F4A
:1008600071E01EC02E0D3F1D401F511F80912D01B4
:1008700090912E01A0912F01B0913001281B390BCE
:100880004A0B5B0B273E31054105510540F4822F91
:10089000223010F070E005C070E082E002C070E02D
:1008A00086EE682F615000B601FCFDCF82B7681755
:1008B00009F46F5F20912D0130912E0140912F019D
:1008C00050913001DA01C9010196A11DB11D860FB9
:1008D000911DA11DB11D82179307A407B50710F440
:1008E000622F609561BFDFBE772319F088E00E9418
:1008F0000E021F910F91FF90EF90DF900895AFB718
:10090000F894BB27E1E0E093D70F609389107093D0
:100910008A1080938B1090938C10209373013093E6
:1009200074014093750150937601AFBF0E94FC03A0
:100930000895AC01652F782F20911D0130911E0183
:1009400080910A0190910B012817390728F0A3E63E
:10095000B2E040E050E014C0F901EE0FFF1FED5986
:10096000FD4F518340832F5F3F4F30931E012093F3
:100970001D010895FD019281838181839C931296CC
:10098000F90131974F5F5F4F4217530799F7EE0F09
:10099000FF1FED59FD4F618370830895982F40919B
:1009A00021015091220120E030E0E4E9FFE0DF0185
:1009B00012960AC080813396891719F48C91992771
:1009C00008952F5F3F4F13962417350799F780E05E
:1009D00090E0089540912701442329F020E030E081
:1009E000E4EAF2E00EC081E08093270120E030E0ED
:1009F00015C080819181EC5EFE4F029779F02F5FE8
:100A00003F4F842F99272817390799F7842F8F5F35
:100A100080932701282F332721503040C9010895A2
:100A2000CF93DF93AC01FB0184E191E0489FD001BB
:100A3000499FB00D589FB00D1124EB01AA55BD4F31
:100A400086E00D9009928150E1F782819927982FD5
:100A5000882723813327822B932B8383892F992700
:100A6000828384819927982F882725813327822B99
:100A7000932B8583892F9927848384E191E0489F74
:100A8000F001499FF00D589FF00D1124EC55FD4FDA
:100A900082E090E09183808380E090E0DF91CF91CD
:100AA00008956FE380E00E94D60160E08BE00E9431
:100AB000D601089582E080932901109212101092BD
:100AC00011100E94FA01BB98BA9880EC8DB9B898C1
:100AD000089566EA8EE00E94D60195988CE120E0A8
:100AE00030E087FF02C0979A01C097989698969A2F
:100AF0002F5F3F4F2730310511F0880FF2CF9798C5
:100B00009698969A8F98959A80E096989927879BC1
:100B100004C0880F991F816001C0880F969A2150E8
:100B200030409FEF2F3F390781F7959A8F9A979A18
:100B300083FFD3CF66E28EE00E94D60108951F9214
:100B40000F920FB60F9211248F9383B783BF00B615
:100B500000FCFDCF8F910F900FBE0F901F90189546
:100B600078941F920F920FB60F9211240F900FBE20
:100B70000F901F90189578941F920F920FB60F92B6
:100B800011240F900FBE0F901F90189578941F920C
:100B90000F920FB60F9211240F900FBE0F901F905F
:100BA000189578941F920F920FB60F9211248F937D
:100BB0009F9386B597B59F918F910F900FBE0F9021
:100BC0001F90189578941F920F920FB60F921124D0
:100BD0002F933F938F939F932FB7F8943327809150
:100BE000DA0F9091DB0F01969093DB0F8093DA0F71
:100BF0002FBF9F918F913F912F910F900FBE0F901C
:100C00001F9018958F929F92AF92BF92CF92EF92C2
:100C10000F931F93CF93DF93CDB7DEB7FC016083B3
:100C200041832383232F332722830583012F112719
:100C30000483E682C782A086BB24A501B40109967D
:100C40000E94B91BDF91CF911F910F91EF90CF9030
:100C5000BF90AF909F908F900895AF92BF92CF9228
:100C6000DF92EF92FF920F931F93FC016383672F34
:100C7000772762834183452F552740832683E5826A
:100C8000EF2CFF24E4820783BB24A501B601CF012A
:100C900008960E94B91B1F910F91FF90EF90DF9073
:100CA000CF90BF90AF900895AF92BF92CF92DF9256
:100CB000EF92FF920F931F93FC016383672F7727B7
:100CC00062834183452F552740832683E582EF2C9D
:100CD000FF24E4820783BB24A501B60108960E9485
:100CE000B91B1F910F91FF90EF90DF90CF90BF90B5
:100CF000AF9008951F920F920FB60F9211242F9369
:100D00003F934F935F936F937F938F939F93AF9393
:100D1000BF93EF93FF9383B783BF00B600FCFDCF73
:100D200081B799270196AA27BB2720912D013091E1
:100D30002E0140912F0150913001280F391F4A1F79
:100D40005B1F20932D0130932E0140932F01509370
:100D5000300178940E94FC03FF91EF91BF91AF9115
:100D60009F918F917F916F915F914F913F912F91C3
:100D70000F900FBE0F901F901895EF920F931F9337
:100D8000AE2D99E0899FF0011124EC51F04F408382
:100D90005183628373830483158326833783A17011
:100DA00080858E7F8A2B8260808789E00E940E0278
:100DB0001F910F91EF900895AF92BF92CF92DF9263
:100DC000EF92FF920F931F93F82E5A016B010E942E
:100DD000A003AB01BC01EE24960185018F2D0E947A
:100DE000BD061F910F91FF90EF90DF90CF90BF90C5
:100DF000AF9008951F93982F80910401843051F58E
:100E00009093040180911C018823A9F412E01093AF
:100E10001C011092E310379A0E94BE0280910701D4
:100E20008823D9F081E080931C011092E310379A57
:100E30000E94BE0218C08091E3108823A1F080E0D8
:100E40000E944F03882379F48091E30F816080939F
:100E5000E30F09C09093671906C01093D20F109248
:100E600065190E94D90280E090E01F9108950F93C8
:100E70001F936BE380E00E94D60180ED97E001971D
:100E800001960197E1F769E380E00E94D60188ECC2
:100E900090E0019701960197E1F70FB7F8941127B9
:100EA0000E945A050FBF1F910F9108951F93CF9372
:100EB000DF93FA01422F86836183672F7727608350
:100EC0002FB7F894332780910801909109012FBF23
:100ED0008383892F9927828382E285838FB7F89451
:100EE000282F33279091280191FD04C0809129017A
:100EF000882321F42FBF81E090E069C0EF01C75B38
:100F0000DF4F9260909328014483F093AD19E093F2
:100F1000AC191B821F821E821D8280E88C832FBF2A
:100F20001FB7F89480911C19826080931C198091DE
:100F30001A01843019F482E00E940E0280911C197B
:100F400080FD0BC00E9435026F7170706F5F7F4F24
:100F50007093E1106093E01006C081E090E0909300
:100F6000E1108093E010888129819927782F6627E6
:100F70003327622B732B77FD05C06091710170914F
:100F8000720102C060957095198218826115710511
:100F900029F466E070E080E090E010C0882799278F
:100FA00026E632E040E050E00E942D1B672F782FAC
:100FB000892F99276A5E7F4F8F4F9F4F70936119DA
:100FC00060936019812F99278FBF80E090E0DF91B7
:100FD000CF911F910895AF92BF92CF92DF92EF927F
:100FE000FF920F931F938091101081FD1AC00E94F1
:100FF00035027B018C010E94A0035B016C01C701DB
:1010000068EC70E00E944C1B8C509E4FAA27BB27B7
:1010100011E0E12E8C019D01B601A50184E00E9442
:10102000BD061F910F91FF90EF90DF90CF90BF9082
:10103000AF900895CF93DF93CDB7DEB7FE01EB5BA2
:10104000FF4F408151819091D30F992319F4A0E073
:10105000B0E016C08091A302E82FFF27EE0FFF1F1C
:10106000E35BFF4EA081B181118210829150909379
:10107000D30F8F5F8093A3028E3111F41092A302DD
:10108000BD019E012B5F3F4F80E4F90101909F015C
:10109000FB010192BF018150C1F7AE5BBF4F1196BA
:1010A0005C934E93A254B040909126019E31A0F4DF
:1010B00080912501E82FFF27EE0FFF1FE35EF64E1C
:1010C000B183A0838F5F809325018E3111F410923C
:1010D00025019F5F909326010E94EB0780E090E03E
:1010E000DF91CF9108958F929F92AF92BF92CF924E
:1010F000DF92EF92FF920F931F93CF93DF93CDB7C1
:10110000DEB7C054D0400FB6F894DEBF0FBECDBFDF
:101110004C01FC0180819927B82FAA27818199274A
:10112000A82BB92B2681FFEFAF3FBF0709F04AC0BC
:10113000F401B380E480FF24FE2CEE2485819927FE
:10114000E82AF92A3327215030406091000170913C
:10115000010148E3A42E88E090E0880E991E640106
:1011600001E010E04FEF5FEF87EB91E00E942D066A
:10117000DE011196E7EBF1E080E401900D928150E1
:10118000E1F78B2D99279F938F93EDB7FEB7E0542E
:10119000F0400FB6F894FEBF0FBEEDBF3196DE01F2
:1011A000119680E40D9001928150E1F70E941A0897
:1011B0008DB79EB78E5B9F4F0FB6F8949EBF0FBE44
:1011C0008DBF55C0822F9927282F882309F44FC03F
:1011D000A401485F5F4FF401E480FF24FE2CEE245D
:1011E00085819927E82AF92A078111273327215079
:1011F000304062817727762F662783819927682B75
:10120000792BE8E3AE2E6A01AD0187EB91E00E94F5
:101210002D06F40181810E94CE04DE011196E7EBD8
:10122000F1E020E401900D922150E1F799279F937E
:101230008F938DB79EB7805490400FB6F8949EBFA1
:101240000FBE8DBFEDB7FEB73196DE01119680E47B
:101250000D9001928150E1F70E941A08EDB7FEB798
:10126000EE5BFF4F0FB6F894FEBF0FBEEDBFC05C44
:10127000DF4F0FB6F894DEBF0FBECDBFDF91CF9129
:101280001F910F91FF90EF90DF90CF90BF90AF90A4
:101290009F908F9008958F929F92AF92CF92DF92FE
:1012A000EF92FF920F931F93CF93DF93CDB7DEB7EB
:1012B000C054D0400FB6F894DEBF0FBECDBF4C0176
:1012C000FC0180819927B82FAA2781819927A82B13
:1012D000B92BFFEFAF3FBF0709F05CC0F4014381BA
:1012E00020911F01309120012115310569F060E046
:1012F00070E0E5E3F1E0808132968417C9F16F5F19
:101300007F4F62177307B9F740930D0254E0509373
:101310000E0280910C0190910D012817390728F0D9
:10132000A5E3B1E060E070E014C0F901EE0FFF1F2B
:10133000EB5CFE4F518340832F5F3F4F3093200182
:1013400020931F017CC0FD019281838181839C9346
:101350001296F90131976F5F7F4F6217730799F704
:10136000EE0FFF1FEB5CFE4F84E08183408367C07C
:10137000E5E3F1E060E070E08081841719F4818199
:101380008F5F81836F5F7F4F32966217730709F417
:1013900056C0F2CFF40186819927282F882309F4BB
:1013A0004EC0A401485F5F4FE480FF24FE2CEE2472
:1013B00085819927E82AF92A0781112733272150A7
:1013C000304062817727762F662783819927682BA3
:1013D000792BE8E3AE2E6A01AD0187EB91E00E9424
:1013E0002D06F40181810E94CE04DE011196E7EB07
:1013F000F1E020E401900D922150E1F799279F93AD
:101400008F938DB79EB7805490400FB6F8949EBFCF
:101410000FBE8DBFEDB7FEB73196DE01119680E4A9
:101420000D9001928150E1F70E941A08EDB7FEB7C6
:10143000EE5BFF4F0FB6F894FEBF0FBEEDBFC05C72
:10144000DF4F0FB6F894DEBF0FBECDBFDF91CF9157
:101450001F910F91FF90EF90DF90CF90AF909F90F2
:101460008F9008951F93CF93DF93182FEB01E82FF0
:10147000FF27EE0FFF1FE852F04F118210821092EB
:101480001001E091D80FF091D90F309721F08091A1
:10149000661980FF11C081E08093100103C08CE0C9
:1014A0000E940E021123C9F4CD58D041B1F410921C
:1014B00023010E94EB0711C0248133276081772725
:1014C000762F662781819927682B792BAF0186813A
:1014D0000E945607882331F3E2CFDF91CF911F910D
:1014E0000895AF92BF92CF92DF92EF920F931F9326
:1014F0005B016C010E94A003AB01BC0111E0E12E75
:101500009601850180E00E94BD061F910F91EF902A
:10151000DF90CF90BF90AF90089580911A018430F2
:1015200061F1853019F1813081F58091EC0F81FDF9
:101530002CC090E0809132018F3108F091E0992326
:1015400081F08091710190917201892B29F460E002
:101550007AE080E090E00EC06EE170E080E090E024
:1015600009C060E870E080E090E004C061E070E0F5
:1015700080E090E00E94710A08956091710170917D
:101580007201882799270E94710A08956F927F92AD
:101590008F929F92AF92BF92CF92DF92EF92FF9283
:1015A0000F931F93CF93DF93CDB7DEB7C35CD040CB
:1015B0000FB6F894DEBF0FBECDBF4B015C01CC244B
:1015C000DD24E4EEFFE0608561FF00C2208131810F
:1015D00042815381E480F58006811781D501C401E1
:1015E000821B930BA40BB50B8E159F05A007B107AB
:1015F00008F4ECC160FF03C06D7F608708C02E0D4A
:101600003F1D401F511F208331834283538382E05B
:10161000C81671F08C1518F0CC20A9F0E0C193E049
:10162000C91609F404C1A4E0CA1609F0D8C1CAC198
:1016300020911F0130912001E0902101F0902201C2
:10164000A0E0B0E085C08FB7F894082F1127F02EE6
:1016500080911A018430B9F08530F9F0813051F56C
:1016600090E080912901833009F491E0992311F5EC
:1016700080910401843019F085E08093040181E0B9
:101680000E94FA0617C085E080931A0110925F1934
:1016900069E380E00E94D6010DC00E94FA0183E058
:1016A0000E94FA0680E590E0019701960197E1F724
:1016B0000FBF95C10E948D0AFFBE91C1FD01EE0FC3
:1016C000FF1FEB5CFE4F8181823008F040C09081AB
:1016D00040E050E0E5E3F1E01AC0808132968917DE
:1016E000A1F460E070E0E4E9FFE010E10AC082816B
:1016F000981719F08081981709F411836F5F7F4F55
:1017000033966E157F0599F706C04F5F5F4F4217FE
:10171000530719F71BC0B9016150704046175707AE
:1017200088F4FA01EE0FFF1FEB5CFE4F05C09281BB
:1017300083818183908332964F5F5F4F42175307B7
:10174000B0F303C02115310509F09B0111971196E3
:10175000A217B30708F4B2CF3093200120931F01E2
:1017600040E050E0E6E3F1E006C0808181508083F4
:101770004F5F5F4F329642175307B9F78FEF809351
:101780005A19609100017091010131E0A32E2AE500
:10179000C22E29E1D22EEE24FF2400E010E022E048
:1017A00030E04FEF5FEF8CED98E10E945406DE01D0
:1017B000AC57BF4FECEDF8E180E401900D92815001
:1017C000E1F7DE01AC5BBF4FFE01EC57FF4F80E459
:1017D00001900D928150E1F7DE011496FE01EC5B61
:1017E000FF4F80E401900D928150E1F78FEF9FEF62
:1017F0009F938F93EDB7FEB7E054F0400FB6F89487
:10180000FEBF0FBEEDBF3196DE01149680E40D9051
:1018100001928150E1F70E941A088DB79EB78E5B46
:101820009F4F0FB6F8949EBF0FBE8DBFD8C0C0901B
:101830001F01D090200105E311E0EE24FF2420C019
:101840009081D8018C91981721F481E08183928353
:1018500061E02F5F3F4F33962417350789F76623E2
:1018600051F4F8018081898391E09A838B83682FFA
:1018700071E00E94C7030E5F1F4F0894E11CF11C2A
:10188000EC14FD0439F46624772495E3892E91E065
:10189000992E8FC0409121015091220120E030E02B
:1018A00060E0E4E9FFE0D8CFD4019C9140912101B0
:1018B0005091220140937019A8E6B9E104E91FE0B4
:1018C00020E030E060E114C0F8018081FD018187F3
:1018D000F8018281981719F4FD01628704C0F801AC
:1018E0008181FD0182872F5F3F4F12960D5F1F4F51
:1018F0002417350749F7609100017091010188E3D1
:10190000A82E00E7C02E09E1D02EEE24FF2405E02A
:1019100010E022E030E04FEF5FEF88E699E10E94AF
:101920005406D4018C91282F3327DE011496E8E663
:10193000F9E190E401900D929150E1F7DE01AC5B8A
:10194000BF4FFE01349690E401900D929150E1F763
:10195000DE01AC57BF4FFE01EC5BFF4F90E40190FE
:101960000D929150E1F73F932F93EDB7FEB7E054FE
:10197000F0400FB6F894FEBF0FBEEDBF3196DE010A
:10198000AC57BF4F80E40D9001928150E1F70E9467
:101990001A080894611C711C82E090E0880E991E60
:1019A000ADB7BEB7AE5BBF4F0FB6F894BEBF0FBEAC
:1019B000ADBF80911F01909120016816790608F44F
:1019C00073CF0DC08AE00E940E0209C00894C11CAA
:1019D000D11C3996B5E0CB16D10409F0F4CD89E0DD
:1019E0000E940E02CD53DF4F0FB6F894DEBF0FBE3C
:1019F000CDBFDF91CF911F910F91FF90EF90DF90BE
:101A0000CF90BF90AF909F908F907F906F900895F0
:101A10001F920F920FB60F921124EF92FF920F9325
:101A20001F932F933F934F935F936F937F938F9366
:101A30009F93AF93BF93CF93DF93EF93FF93C4B183
:101A4000D5B178948FB7F894992720910502322F59
:101A50003695317021708FBF222309F024C133984D
:101A60008091D20F813021F0823009F050C10AC03C
:101A7000332351F0D0934C10C0934B1087E00E9459
:101A80000E0245C1332319F40E94D90240C11092BD
:101A9000D20F80916519882309F039C1EFB6F89407
:101AA00080910401813099F0813030F08230C1F0B2
:101AB000833009F09EC058C0E0910201F09103010B
:101AC000E75BFF4FC1838D2F9927808392C0D0930E
:101AD0000A02C093090283E00E940E0282E069C0FC
:101AE00020915F192F5F20935F19809105019091DC
:101AF00006010C968C179D0740F4809108028F5FB9
:101B000080930802882339F402C010920802809161
:101B10001C1980FF18C083E080931A0187E080932E
:101B2000290110921210109211101092340110928B
:101B300033018AEA809331018093A8190E946303DC
:101B4000BB9ABA9A56C0253059F40E9435026F707C
:101B500070706F5F7F4F7093E1106093E01049C029
:101B600082E00E94FA0645C080910501909106012D
:101B70009C013695279536952795821B930B8C17DC
:101B80009D07D0F482E00E940E02809105019091A1
:101B900006019C0143E0369527954A95E1F7820FAF
:101BA000931FC817D90728F5D0930A02C0930902DA
:101BB00083E00E940E021DC080915F198F5F8093A9
:101BC0005F198150863060F085E08093040181E0E8
:101BD00080931A0180E00E940E020E945A0509C0FB
:101BE00083E00E94FA0680E590E001970196019754
:101BF000E1F78091671980930401843059F084E003
:101C00008093671982E08093D20F109265190E9429
:101C1000D90245C080911C01833009F040C08091F9
:101C200007018823E1F58091E30F882309F069C05B
:101C300061C0EF2DE695E695E695FF274F2D5527D8
:101C4000ED51F04F9A012770307081E090E002C0B2
:101C5000880F991F2A95E2F78095208128232083F9
:101C6000C0931B0111C02196C130D10511F4C0E011
:101C7000D0E0FC2E8C2F0E944F038823D1F6C01792
:101C8000D10789F74FEF50E04093E3108FEF809337
:101C9000070181E080931C0186E00E940E028E2DD8
:101CA00099278FBF34C08FB7F89499278FBF2FB76C
:101CB000F894332786B1582F5770482F4072987D7B
:101CC000942B952B8074977B982B90619F77892F0D
:101CD000992786B9887D842B852B87738061992706
:101CE00086B9887D842B852B877B8069992786B967
:101CF0002FBF0DC081E08093070110921C0137981F
:101D0000CECF80911B01082F1127E801ACCFFF91A6
:101D1000EF91DF91CF91BF91AF919F918F917F9183
:101D20006F915F914F913F912F911F910F91FF9074
:101D3000EF900F900FBE0F901F90189580911A0191
:101D4000823069F480910401843019F085E0809339
:101D5000040181E080931A0180E00E940E02089540
:101D60001F920F920FB60F9211246F927F928F9253
:101D70009F92AF92BF92CF92DF92EF92FF920F931A
:101D80001F932F933F934F935F936F937F938F9303
:101D90009F93AF93BF93CF93DF93EF93FF931FB1C5
:101DA0008091A8198FB96091280162FD10958091EA
:101DB0002901883009F444C0893098F4843009F44A
:101DC0005BC2853038F4823009F478C1833009F081
:101DD00027C3BFC1863009F4F1C2873009F020C3A0
:101DE00015C08B3009F4E1C08C3030F48930A9F192
:101DF0008A3009F015C3CBC08D3009F415C18D3080
:101E000008F4F2C08E3009F00BC342C18091310159
:101E10008093A819809111109091121001969093BF
:101E2000121080931110209160193091611982175E
:101E3000930708F4F5C283E38093310188E0EEC292
:101E4000809131018093A8198CEC8093310189E055
:101E5000809329018FEF9FEF5AC2C091AC19D091A6
:101E6000AD19209131012093A81980911110909102
:101E70001210019690931210809311102C3C09F0CF
:101E800062C00E94AF013B014C01E091AC19F0919E
:101E9000AD19E75BFF4F6783BB27A92D982D872DD1
:101EA0008683C401AA27BB278583892D9927AA2762
:101EB000BB278483E091AC19F091AD19E75BFF4F2C
:101EC0008381E954F0408823F1F184818D5FE80F2C
:101ED000F11D2081E1808281A3809927AA27BB2759
:101EE000BA2FA92F982F8827332744275527522FF9
:101EF000442733272227FF24002711278701FF24A7
:101F0000EE242E293F29402B512BBB24CC24DD2449
:101F10002A293B294C295D29822B932BA42BB52BF5
:101F200086199709A809B9098383292F3A2F4B2FBE
:101F3000552722839D014427552721838B2F9927DD
:101F4000AA27BB278083E0911110F09112108C8199
:101F500099270796E817F907A0F48091AC1990919A
:101F6000AD19E80FF91F6081609331018091330151
:101F7000909134010E94C801909334018093330101
:101F80004FC280913301809331018AE047C2809132
:101F900031018093A8198091330190913401892FE8
:101FA0009927809331018BE013C080913101809398
:101FB000A81980911110909112100196909312100F
:101FC00080931110049708F42BC260FF08C08CE0C6
:101FD00080932901109212101092111021C2BB9807
:101FE000BA980E94FA0119C2809131018093A81910
:101FF000809111109091121001969093121080937D
:1020000011108130910529F4BB98BA980E94FA0109
:1020100007C2049708F404C28DE08093290110924E
:10202000AA191092A919D6CF809131018093A819CD
:10203000809111109091121001969093121080933C
:1020400011108091A9199091AA1920E0880F991F69
:1020500017FD81603AEB8338930709F4D1C12F5FF4
:10206000283011F0110FF2CF9093AA198093A9197B
:102070008091111090911210429708F4D1C1E09113
:10208000AC19F091AD19E75BFF4F82818E7FC4C11F
:1020900084E00E940E0280911C198D7F80931C1990
:1020A00080910401843019F085E08093040181E07F
:1020B00080931A0180E00E940E02B2C11A3A19F010
:1020C000153509F097C18091111090911210019669
:1020D0009093121080931110039758F083E080932F
:1020E000290110921210109211101092AA19109238
:1020F000A91991E080911C1981FF92C180FD0DC04A
:10210000992359F00E9435026F7070706F5F7F4F96
:102110007093E1106093E01083C18091E010909182
:10212000E110009709F47CC101979093E11080932E
:10213000E010892B09F074C180910401843019F0FA
:1021400085E08093040110925F1982E00E94FA06F4
:1021500067C11A3A11F0153529F4812F9927982F64
:10216000882714C0809111109091121001969093BD
:102170001210809311108130910569F4212F3327BB
:102180008091A9199091AA19822B932B9093AA1947
:102190008093A91945C1079708F06CC00E94AF0150
:1021A0003B014C01C091A919D091AA199C2F8827F5
:1021B000212F3327822B932B9093AA198093A9194F
:1021C00007E0CC0FDD1F17FDC16083E3CC3CD807CF
:1021D00009F04AC0E0910201F091030184E080938C
:1021E000290180E484831092121010921110109231
:1021F00034011092330180910401843019F085E09C
:102200008093040182E080931A01802F8770880FE9
:10221000880F880FE0912801E77CE82BE0932801E4
:10222000E695E695E695E770FF27EF5EFE4F808125
:10223000681A710881089108E0910201F091030188
:10224000E75BFF4F6782BB27A92D982D872D8683DB
:10225000C401AA27BB278583892D9927AA27BB27D5
:10226000848380E00E94FA0601500F3F09F4D8C031
:10227000110FA7CF82E0ACCEE0910201F0910301F3
:102280004481413450F082E0809329011092121071
:10229000109211100E949E0EC3C08091A9199091B6
:1022A000AA19982F8827212F3327822B932B9093BD
:1022B000AA198093A919669566956695677002C0FC
:1022C000969587956A95E2F7BC01809111109091DF
:1022D0001210E80FF91F6083EC012196D0931210C1
:1022E000C0931110495F842E99248C169D0650F0DE
:1022F00080913301909134010E94C8019093340180
:1023000080933301C815D90539F487E490E09093A0
:1023100012108093111084C0C934D10509F080C017
:10232000A0910201B0910301FD01E95BFF4F8181A2
:10233000208140E050E09927982F88273327822B6F
:10234000932B20913301309134018217930711F4BC
:1023500041E050E0242F4083852F9927482F818327
:102360008091280180FF3AC0842F9927982F8827D1
:102370003327822B932B892B89F18C91FD0141818D
:102380002FB7F894332760910801709109012FBF8E
:102390009927982F88275527842B952B86179707E1
:1023A000E9F486E080932901109212101092111026
:1023B0000E946303BB9ABA9A8AEA19C0E09111108D
:1023C000F09112103196F0931210E0931110E03159
:1023D000F10538F00E94FA01BB98BA980E947E037A
:1023E0001FC0EB30F105E0F0E957FD4F8491809379
:1023F000A81916C0109212101092111090E07ACE07
:102400009093AA198093A919E091AC19F091AD1994
:10241000E75BFF4F8281816082838EE08093290198
:10242000FF91EF91DF91CF91BF91AF919F918F91EC
:102430007F916F915F914F913F912F911F910F91DC
:10244000FF90EF90DF90CF90BF90AF909F908F90D4
:102450007F906F900F900FBE0F901F901895CF93A5
:10246000DF938FB7F894C82FDD2780911A01882356
:1024700009F591E090932901809128018D7F846076
:102480008093280180910401843019F085E08093C5
:10249000040190931A0180E00E940E0280911C19A1
:1024A0008D7F80931C19CFBF0E94370781E00E9467
:1024B0000E0201C0CFBF80E090E0DF91CF91089580
:1024C0002F923F924F925F926F927F928F929F9244
:1024D000AF92BF92CF92DF92EF92FF920F931F9332
:1024E000CF93DF93CDB7DEB7CF54D0400FB6F8947B
:1024F000DEBF0FBECDBF863009F4BEC3873090F477
:10250000823009F450C0833030F4882341F18130A7
:1025100009F029C52AC0843009F40FC1853008F0BC
:102520002FC18FC0893009F4F5C38A3038F4873061
:1025300009F4BAC3883009F016C5B9C38B3039F035
:102540008B3008F439C48C3009F00DC5EBC4809190
:102550006619882309F407C540E011E0C1C40FB72C
:10256000F89411270E948D0AE6C08FB7F894992736
:1025700020911A018FBF222309F4F5C440912A014A
:1025800050912B016627772782E00E94DC0640915C
:102590002A0150912B014856554C6627772783E036
:1025A0000E94DC06E0C41FB7F89480911C1981FDDD
:1025B00006C08091710190917201892BA1F48091E4
:1025C0001A018450823098F580910401843019F00A
:1025D00085E08093040181E080931A0180E00E94ED
:1025E0000E0221E025C090E0809132018F3108F089
:1025F00091E09923E1F090E080912901833009F482
:1026000091E09923A1F40E94510581E08093290172
:102610006F98B89AC09880910401843019F085E0D1
:102620008093040184E080931A010E948D0A20E0C7
:10263000812F99278FBF222309F495C40E94370761
:1026400092C48FB7F89499272091090230910A0219
:102650008FBF80912C01E82FFF27EE0FFF1FE2555F
:10266000F64E318320838F5F80932C01893010F0E8
:1026700010922C01809132018F3118F48F5F80937A
:102680003201DE011696EEEAF9E182E101900D9247
:102690008150E1F760E08E010F5F1F4F41E050E095
:1026A000DE011896E52FFF27EE0FFF1FE00FF11F49
:1026B0002D913C911197858196818217930708F49B
:1026C000542F4F5F1296493069F7E52FFF2763308B
:1026D00041F0EE0FFF1FE00FF11F168215826F5FB2
:1026E000DDCF609105017091060188279927B5E03B
:1026F000660F771F881F991FBA95D1F7EE0FFF1F3E
:10270000E00FF11F2581368144275527220F331F03
:10271000441F551F620F731F841F951F0FB7F89436
:10272000112722E230E040E050E00E94601B30932D
:102730000601209305010FBF16C42FB7F894332765
:102740004091AC195091AD19809128018D7F8093F3
:10275000280182E08093290110921210109211102A
:102760002FBF80911001882309F0FDC36091D80F1D
:102770007091D90F6417750709F0F5C340E0DDC308
:102780008FB7F894282F332780912901853011F0D5
:102790002FBFE9C360900201709003012FBFF301C6
:1027A0001481E95BFF4F818120819927F82EEE2467
:1027B0003327E22AF32AF1E0EF16F10409F042C2CE
:1027C000F301808141812FB7F8943327609108018C
:1027D000709109012FBF9927982F88275527842B9F
:1027E000952B8617970761F0808121819927982F73
:1027F00088273327822B932B8F5F9F4F09F022C2AC
:10280000F3018681863009F01DC2103409F01AC226
:10281000A301495F5F4F948582858093D50F909384
:10282000D60F2090000130900101878120859927E3
:10283000982F88273327822B932B26852816390635
:1028400009F064C1822F99278130E9F1813048F085
:10285000843021F0833609F0F5C150C010920C028B
:10286000F1C1F3018585882309F4ECC1E3848485F3
:1028700041852285B301615F7F4FFF24FE2CEE244A
:102880009927E82AF92A5527542F44273327422B22
:10289000532B18E3A12E6B0101E010E02FE030E094
:1028A000B10187E791E00E9454069090D60F809086
:1028B000D50FC4010E9499046091D50F7091D60F75
:1028C00087E791E036C1F301438584855527542F6E
:1028D00044279927482B592B818522859927982FA2
:1028E00088273327822B932B8093D50F4093D60FC5
:1028F000B42FA82FCD010E949904A4C19301215F98
:102900003F4FF3018785803309F01AC3DE015896E3
:10291000719688E301900D928150E1F7F901818170
:102920008983E090D00FF090D10F0894E11CF11C46
:10293000F092D10FE092D00F0894E108F10849819C
:102940005A814053504050706091000170910101D4
:10295000F8E3AF2EE8E1CE2ED12CCC0EDD1E00E048
:1029600010E02FE030E087E791E00E94540650909D
:10297000D60F4090D50FC2010E949904A9C0F3015F
:10298000108981E08093E2100E94EA04909307028C
:102990008093060220910001309101012093E20F03
:1029A000232F33272093E10F10531093DE0F109243
:1029B000E00F1092DF0F1092DD0F6DED7FE00E94AF
:1029C000100580930C02209106023091070284E1E9
:1029D00091E0289FF001299FF00D389FF00D112400
:1029E000EC55FD4FF182E08210922B0110922A01EA
:1029F00029C1F3018089805399279A838983F188BB
:102A0000F0EDFF0E0E94EA04909307028093060205
:102A100020910001309101012093E00F232F3327F3
:102A20002093DF0F29813A812093E20F232F332750
:102A30002093E10FF092DD0FF092DE0F6DED7FE05D
:102A40000E941005209106023091070284E191E076
:102A5000289FF001299FF00D389FF00D1124EC55AF
:102A6000FD4F83E090E09183808310920C020AE294
:102A7000802E01E0902E11E0A12ECC24B1E0EB2EAF
:102A800000E010E020E030E04F2D6F2D83E190E179
:102A90000E940206E0901510FF24FE2CEE24809187
:102AA00016109927E82AF92A49815A816091000174
:102AB00070910101F8E3AF2EE3E1CE2EE0E1DE2ECE
:102AC00004E010E02FE030E087E791E00E94540638
:102AD0006091D50F7091D60F87E791E0B1C0F301F7
:102AE0008089805399279A838983618960533AE268
:102AF000832E31E0932E21E0A22ECC2494E0E92E07
:102B000000E010E020E030E0462FC0CF822F992770
:102B1000813051F0813008F48EC0843009F48BC0CC
:102B2000853009F08FC008C06091D50F7091D60F25
:102B3000CA010E944B0986C0F301F2849301215F10
:102B40003F4FE7848091210190912201892B09F464
:102B500079C08901CC24DD2467C0F901EE0FFF1F85
:102B6000E20FF31FEC56F04F8181992720C0F80146
:102B7000818199272091000130910101281739079F
:102B800009F44DC07281409121015091220120E051
:102B900030E0E4E9FFE006C0808133968F15E9F26A
:102BA0002F5F3F4F24173507B9F780E090E0780F8B
:102BB000703108F070E120E030E040E0B4E9AB2E85
:102BC000BFE0BB2EA0912101B09122011BC0F801F2
:102BD0009181F5018081981779F4703129F482810F
:102BE000F81611F4718308C0F5018181781718F483
:102BF000F5017183F28241E02F5F3F4F83E090E067
:102C0000A80EB91E2A173B0710F3442341F4F8011C
:102C100061816B837C83FD828F2D0E94C7030894A2
:102C2000C11CD11C0E5F1F4F8E2D9927C816D906C7
:102C300009F09DCF07C06091D50F7091D60FCA01E2
:102C40000E9473081FB7F8946114710421F0709208
:102C500003016092020180912901853039F482E0FC
:102C60008093290110921210109211100E949E0E52
:102C7000812F99278FBF77C12FB7F8943327809181
:102C8000E3108093070183E080931C012FBF8091A4
:102C90000701882309F067C182E08093D20F109268
:102CA00065190E94D9025FC11092D20F5CC1809158
:102CB0000402882361F520915B1930915C194091E1
:102CC0005D1950915E19EFB7F894FF276091891054
:102CD00070918A1080918B1090918C10E09073010C
:102CE000F090740100917501109176016E0D7F1DB9
:102CF000801F911FEFBF20935B1930935C194093A5
:102D00005D1950935E19109204020E947F040E9484
:102D1000A0033FC00E94A0035B016C018FB7F89431
:102D200099271092D70F8FBF2FEF3FEF4FEF5FE73D
:102D300060E0E4EEFFE0808581FF1CC0808191812E
:102D4000A281B38186017501E81AF90A0A0B1B0BEF
:102D5000D801C701E480F58006811781E81AF90AD5
:102D60000A0B1B0BE216F306040715071CF4A80157
:102D7000970161E0399600E1E131F007E1F6662361
:102D800009F4F1C012161306140615062CF0C6013C
:102D9000B5010E94C60AE7C020935B1930935C1905
:102DA00040935D1950935E1981E080930402C6013F
:102DB000B5010E947F04D7C090E08091260188234E
:102DC00009F491E0992309F0CEC080912301882372
:102DD00009F082C0E0912401FF27EE0FFF1FE35EA0
:102DE000F64E008111810E5B1F4FF8012081318169
:102DF00002541040A4E9B0E1F80180E401900D9282
:102E00008150E1F74DE850E120938E10632F772732
:102E100060938D1086E0809393108091D80F9091ED
:102E2000D90F892B09F04FC05093D90F4093D80F79
:102E300080E480939110809110018823C9F0762F4F
:102E40006627822F9927682B792B1092100120E496
:102E500086E00E9456079927282F882349F081E0B1
:102E6000809310011092D90F1092D80F222359F598
:102E700081E0809323018091240190912601992380
:102E800051F08F5F809324018E3111F41092240150
:102E90009150909326019091D30F9E31A0F4809190
:102EA000A302E82EE90EF12CF11CF701EE31F10539
:102EB00008F07E97EE0FFF1FE35BFF4E1183008348
:102EC0009F5F9093D30F90E080912601882309F4AF
:102ED00091E0992309F047C00E94EB0744C0110F0D
:102EE00090916619812F8923C9F0E42FFF27EE0FF7
:102EF000FF1FE852F04F2081318111821082812F13
:102F00008095982390936619442341F42D583041BD
:102F100039F5109223010E94EB0722C04F5F483021
:102F2000F0F221C080911001E82FFF27EE0FFF1F64
:102F3000E852F04F6081718141E00E94320A13C073
:102F4000813309F47FCE833309F47CCE853309F4D1
:102F500016CD843309F44DCD873309F073CEBFCD40
:102F6000110F41E0BDCFC15BDF4F0FB6F894DEBF5C
:102F70000FBECDBFDF91CF911F910F91FF90EF90CA
:102F8000DF90CF90BF90AF909F908F907F906F9089
:102F90005F904F903F902F900895809162198F3FDE
:102FA000B1F0282F3327F901E950FE4F808180933B
:102FB00062198F3F11F48093AB198FEF80832F3FFD
:102FC00031F0822F0E94601281E090E0089580E04D
:102FD00090E00895FF920F931F93CF93DF93FFB676
:102FE000F8944DE050E06FEF70E087EF91E00E94C1
:102FF000C21B8FEF809362198093AB1981E08EBD65
:1030000088E080BF83E083BF8CB59DB54AE72CB5CF
:103010003DB52817390708F44150442311F0C90180
:10302000F6CF92B782B78917E9F32CB53DB592B7C1
:1030300082B78917E9F38CB59DB5821B930B409637
:1030400055E0969587955A95E1F79093641980938A
:10305000631913BE83B78EBD8EB580BF12BE1DBC73
:103060001CBC8FEF86BF86B780937C0080B7992702
:1030700087709070892BD1F780EB85BB8FEF84BB75
:1030800080E288BB87BB1DBC1CBC87B7846087BF40
:103090008EB5887F84608EBD16B817988D9A8E9AEB
:1030A0008F9A959A979A969A6FE380E00E94D6013C
:1030B00060E08BE00E94D601B998BB98BA980E9454
:1030C000CD178823E1F7EDE4F0E184EE90E1819300
:1030D00091938C5B9F4F20E1E938F207C1F78EE1B5
:1030E0008093D30F1092A30280B7886080BF8BE0DB
:1030F00083BF86EE81BF87B7826087BF0E94FC03D3
:1031000080910001909101010196AA27BB2780932D
:103110009F029093A002A093A102B093A2021092EA
:10312000E30F809128018160809328016B986A9851
:103130006F9A6E9A6AE380E00E94D6016BE380E0AA
:103140000E94D60180ED97E0019701960197E1F783
:1031500080E88093D40F60E88BE00E94D60160E99C
:1031600084E00E94D60160E08FE00E94D6016FE605
:1031700080E10E94D60165E581E10E94D60161E00F
:1031800083E10E94D60101E010E0C0ECD2E0FE0134
:103190006491802F0E94D6010F5F1F4F21960D3042
:1031A0001105A9F7C1EDD2E0FE01649182E10E9410
:1031B000D6012997FE018491809359192A96FE0120
:1031C000849180930F022897FE0184918093D40FFD
:1031D00060E08BE00E94D6016FE382E40E94D6019A
:1031E00061E180E00E94D6010E94690561EE80E005
:1031F0000E94D60160910F0289E00E94D60160E032
:103200008BE00E94D6010E9469050E94FA010E948B
:103210005105EEEAF9E180E291E08193919329E191
:10322000E03CF207D1F70E94CD178823E1F78F2DFC
:1032300099278FBF78941092E2101092DC0F0E94B1
:103240002F120E943502DC01CB0164E170E00E9484
:103250004C1B24E630E0AC01429FC001439F900D1F
:10326000529F900D112488579C4E90932B01809370
:103270002A011092D10F1092D00F109220011092BB
:103280001F018FB7F894482F55274BC087B7992750
:1032900083709070892B19F4E5E0F0E013C080B7DB
:1032A000992787709070892BD1F781B792B7891BC6
:1032B0008C3030F082B7853F18F4E3E0F0E002C0D4
:1032C000E2E0F0E087B7887BC1F480917D008B7FDE
:1032D000A1F46E9912C08AB190919A00892B8871DD
:1032E00061F48091740082FD08C0379B03C081E0C7
:1032F00090E005C085E090E002C080E090E025B756
:103300008E1708F4E82FFF27E457FD4FE491237E42
:103310002062E22BE5BF78948895F89485B78F7D7D
:1033200085BF809162198F3F09F4B0CF282F3327D2
:10333000F901E950FE4F8081809362198F3F11F4AB
:103340008093AB198FEF80832F3F09F49FCF4FBF3E
:10335000822F0E94601295CFACE2B0E0E2EBF9E17F
:103360000C94821B222E332E442E552E662E772E41
:10337000882E992EFE013196A8E01192AA95E9F7C0
:1033800029823A824B825C826D827E828F8298860D
:10339000FE013996B8E01192BA95E9F7A986BA8686
:1033A000CB86DC86ED86FE860F87188B89819A8115
:1033B000AB81BC8189A79AA7ABA7BCA77C018D0173
:1033C0008FEF9FEFA0E0B0E0E822F9220A231B2351
:1033D00089A59AA5ABA5BCA51D01442455248985C2
:1033E0009A85AB85BC858DA39EA3AFA3B8A75C01CE
:1033F0006D018FEF9FEFA0E0B0E0A822B922CA22B2
:10340000DB228DA19EA1AFA1B8A53D0188249924FE
:10341000C801B701A60195010E942D1B69A37AA3DB
:103420008BA39CA3C801B701A40193010E942D1B8B
:103430007B018C01C201B101A60195010E942D1BE7
:103440005B016C01C201B101A40193010E942D1B1B
:103450003B014C01EA0CFB1C0C1D1D1D89A19AA10E
:10346000ABA1BCA19D01442755272E0D3F1D401F38
:10347000511F2A153B054C055D0540F480E090E0A6
:10348000A1E0B0E0680E791E8A1E9B1ECA01AA2721
:10349000BB27860D971DA81DB91D8D8F9E8FAF8FE1
:1034A000B8A3A9013327222789A19AA1ABA1BCA166
:1034B000A070B070280F391F4A1F5B1F298F3A8FE9
:1034C0004B8F5C8FA98CBA8CCB8CDC8CED8CFE8CFA
:1034D0000F8D18A1FE01719698E011929A95E9F767
:1034E000ED8AFE8A0F8B188F2D813E814F81588582
:1034F0006DA17EA18FA198A50E942D1B3B014C01BF
:103500002D853E854F85588969A57AA58BA59CA5F3
:103510000E942D1B2D893E894F89588D260F371FFC
:10352000481F591F260D371D481D591D2D8B3E8BD9
:103530004F8B588F6D887E888F88988C2A2D3B2DD5
:103540004C2D5D2D662D772D882D992DE2E1AC96C1
:103550000C949E1BA0E1B0E0E0EBFAE10C94821B1E
:10356000222E332E442E552E662E772E882E992EFF
:10357000002309F466C088E0FE01319611928A9515
:10358000E9F729833A834B835C836D837E838F8243
:103590009887E0E2E01B1E16CCF52D813E814F811D
:1035A0005885602F772767FD7095DA01C901062ECF
:1035B00004C0B695A795979587950A94D2F78D87FD
:1035C0009E87AF87B88B04C0220F331F441F551F3F
:1035D000EA95D2F789819A81AB81BC8104C0B69506
:1035E000A795979587956A95D2F7282B392B4A2B63
:1035F0005B2B29873A874B875C8729843A844B84E5
:103600005C846D847E848F8498881BC01D861E8692
:103610001F86188A2E2F332727FD30953095219548
:103620003F4F8D819E81AF81B88504C0B695A79527
:10363000979587952A95D2F789879A87AB87BC8714
:10364000DCCF222D332D442D552D662D772D882D41
:10365000992DE2E160960C949E1B629FD001739FAE
:10366000F001829FE00DF11D649FE00DF11D929F1E
:10367000F00D839FF00D749FF00D659FF00D99275D
:10368000729FB00DE11DF91F639FB00DE11DF91F81
:10369000BD01CF0111240895AA1BBB1B51E107C036
:1036A000AA1FBB1FA617B70710F0A61BB70B881FD2
:1036B000991F5A95A9F780959095BC01CD01089561
:1036C000A1E21A2EAA1BBB1BFD010DC0AA1FBB1F26
:1036D000EE1FFF1FA217B307E407F50720F0A21B98
:1036E000B30BE40BF50B661F771F881F991F1A9405
:1036F00069F760957095809590959B01AC01BD012F
:10370000CF0108952F923F924F925F926F927F92D6
:103710008F929F92AF92BF92CF92DF92EF92FF92E1
:103720000F931F93CF93DF93CDB7DEB7CA1BDB0B8D
:103730000FB6F894DEBF0FBECDBF09942A88398832
:1037400048885F846E847D848C849B84AA84B98439
:10375000C884DF80EE80FD800C811B81AA81B98145
:10376000CE0FD11D0FB6F894DEBF0FBECDBFED0159
:103770000895FB01DC0102C001900D9241505040C0
:10378000D8F70895DC0101C06D9341505040E0F737
:043790000895FFCFCA
:10379400010010020420010101001E001E0014009B
:0A37A400010000000000000000001A
:00000001FF
